:100000000C944A000C9467000C9467000C946700F1
:100010000C9467000C9467000C9467000C946700C4
:100020000C9467000C9467000C9467000C946700B4
:100030000C9467000C9467000C9467000C946700A4
:100040000C9467000C9467000C9467000C94670094
:100050000C946700001F000000001F00001F10101C
:1000600010101F00001F181818181F00001F1C1C5C
:100070001C1C1F00001F1E1E1E1E1F00001F1F1F16
:100080001F1F1F0003070F1F0F070300181C1E1F51
:100090001E1C180011241FBECFE5D8E0DEBFCDBF67
:1000A00011E0A0E6B0E0E0EAF1E102C005900D92B7
:1000B000AC35B107D9F711E0ACE5B1E001C01D9254
:1000C000A83BB107E1F70E949C050C94CE080C9464
:1000D00000000E94450260E080E00E946A026BE03E
:1000E00080E690E00E944B0261E080E00E946A029C
:1000F0006CE08CE690E00E944B022FE78FE492E1E7
:10010000215080409040E1F700C000000C94700442
:100110000E94450260E080E00E946A0269E089E78F
:1001200090E00E944B0261E080E00E946A026CE075
:100130008CE690E00E944B022FE78FE492E1215081
:1001400080409040E1F700C000000C9470040E94D1
:10015000450260E080E00E946A0269E083E890E086
:100160000E944B0261E080E00E946A026CE08CE633
:1001700090E00E944B022FE78FE492E121508040F3
:100180009040E1F700C000000C9470040E9445020A
:1001900060E080E00E946A026BE08DE890E00E94DF
:1001A0004B0261E080E00E946A026CE08CE690E025
:1001B0000E944B022FE78FE492E121508040904053
:1001C000E1F700C000000C9470040E94450260E05A
:1001D00080E00E946A0269E089E990E00E944B0297
:1001E00061E080E00E946A026CE08CE690E00E9490
:1001F0004B022FE78FE492E1215080409040E1F7DD
:1002000000C000000C9470040E94450260E080E091
:100210000E946A0265E083EA90E00E944B0261E07E
:1002200080E00E946A026CE08CE690E00E944B0243
:100230002FE78FE492E1215080409040E1F700C029
:1002400000000C94700421E030E0309365012093AD
:10025000640189EA90E0909367018093660162E00F
:10026000609368011092690130936D0120936C01D5
:100270008AEB90E090936F0180936E016093700120
:1002800071E07093710130937501209374018BECD0
:1002900090E09093770180937601109278016093BB
:1002A000790189E690E090937B0180937A0182E066
:1002B00090E090937D0180937C014CED50E0509351
:1002C0007F0140937E01109280016093810148E894
:1002D00050E0509383014093820190938501809375
:1002E00084014DEE50E05093870140938601609366
:1002F00088017093890130938D0120938C014EEF1A
:1003000050E050938F0140938E011092900175E060
:100310007093910146EC50E0509393014093920109
:1003200090939501809394014FE051E05093970191
:1003300040939601109298017093990147EA50E01A
:1003400050939B0140939A0190939D0180939C014F
:1003500040E251E050939F0140939E016093A001C1
:100360001092A1013093A5012093A40121E331E073
:100370003093A7012093A6011092A80148E0409372
:10038000A90125EE30E03093AB012093AA019093B0
:10039000AD018093AC0182E491E09093AF01809332
:1003A000AE011092B0014093B10184E091E09093CE
:1003B000B3018093B201089587FF02C0C09A01C0C3
:1003C000C09886FF02C0C19A01C0C19885FF02C0D3
:1003D000C29A01C0C29884FF02C0C39A0895C3980C
:1003E0000895CF93C82F807F0E94DC01C59AC49ADC
:1003F00087EB9BE00197F1F700C00000C498C59817
:1004000087EB9BE00197F1F700C000008C2F8295ED
:10041000807F0E94DC01C59AC49A87EB9BE001971C
:10042000F1F700C00000C498C59887EB9BE00197E6
:10043000F1F700C00000CF910895CF93C82F807FBF
:100440000E94DC01C49A87EB9BE00197F1F700C0A2
:100450000000C49887EB9BE00197F1F700C0000013
:100460008C2F8295807F0E94DC01C49A87EB9BE0F1
:100470000197F1F700C00000C49887EB9BE001975B
:10048000F1F700C00000CF91089581E00C941D02A7
:1004900082E00C941D02EF92FF921F93CF93DF93A3
:1004A0001F92CDB7DEB7009771F0182F7C018E2D0B
:1004B000811B861740F4F70181917F0169830E94B7
:1004C000F1016981F4CF0F90DF91CF911F91FF90DF
:1004D000EF900895623031F0633031F0613029F4EB
:1004E000805C03C08C5E01C08C5A80680C941D0235
:1004F0001F93CF93DF93EC01862F642F0E946A0233
:1005000010E0FE01E10FF11D8491882321F00E948B
:10051000F1011F5FF6CFDF91CF911F910895EF9208
:10052000FF920F931F93CF93DF938C0188E0689F16
:10053000B0011124862F8064E82EC0E0D0E0F801DD
:10054000EC0FFD1FF4908C2F8E0D0E941D028F2D3D
:100550000E94F1012196C830D10589F7DF91CF9132
:100560001F910F91FF90EF9008951F93CF93DF930A
:1005700087EC9FEA0197F1F700C0000080E00E943D
:10058000DC01C598C798C498BB9ABA9AB99AB89A28
:10059000BD9ABF9ABC9A80E30E94DC01C49A87EBA3
:1005A0009BE00197F1F700C00000C49887EB9BE047
:1005B0000197F1F700C0000080E30E94DC01C49ABB
:1005C00087EB9BE00197F1F700C00000C49887EB30
:1005D0009BE00197F1F700C0000080E20E94DC017F
:1005E000C49A87EB9BE00197F1F700C00000C49824
:1005F00087EB9BE00197F1F700C0000088E20E94C2
:100600001D028CE00E941D02C4E5D0E060E011E014
:10061000160FCE010E948F022896183011F0612F1C
:10062000F6CFDF91CF911F910895CF93DF93D82F0D
:10063000C0E0CD1729F08EE10E941D02CF5FF9CFF7
:10064000DF91CF910895CF93DF93D82FC0E0CD17DE
:1006500029F088E10E941D02CF5FF9CFDF91CF9191
:1006600008958EE00C941D028FE00C941D028CE026
:100670000C941D0288E00C941D028CE00C941D0269
:10068000CF93DF93D82FC0E0CD1729F080E10E94EF
:100690001D02CF5FF9CFDF91CF910895CF93DF9304
:1006A000D82FC0E0CD1729F084E10E941D02CF5F52
:1006B000F9CFDF91CF910895CF92DF92EF92FF9221
:1006C0000F931F93CF93DF931F92CDB7DEB756E002
:1006D000459F90011124E82FE29FC001E39F900DF8
:1006E000112470E00E94DB058B01CB0166E070E015
:1006F0000E94C705E82EC12CD12CF12CF416B9F0BC
:1007000096012B5F3F4F0217130728F40C151D05A8
:1007100020F08E2D03C085E001C080E049830E9457
:10072000F101F394F6E0CF0ED11C4981E7CF0F9091
:10073000DF91CF911F910F91FF90EF90DF90CF90BD
:100740000895CF92DF92EF92FF920F931F93CF9372
:10075000DF93CDB7DEB76E970FB6F894DEBF0FBE4E
:10076000CDBFD82EC92E062FF42EE22E642F802F57
:100770000E946A02EE2071F011E0E11638F061E0AB
:1007800080E491E00E944B021F5FF7CF6F2D802F16
:100790000E946A02CF92DF9288E591E09F938F9347
:1007A0001F928FE08F938E010F5F1F4F1F930F9348
:1007B0000E94EF05F80101900020E9F7BF016150A8
:1007C0007109601B710BC8010E944B020FB6F894AF
:1007D000DEBF0FBECDBF6E960FB6F894DEBF0FBE64
:1007E000CDBFDF91CF911F910F91FF90EF90DF90E0
:1007F000CF900895EF92FF920F931F93CF93DF93C3
:10080000CDB7DEB76E970FB6F894DEBF0FBECDBF83
:10081000F82EE92E062F61112EC0EF92FF9288E587
:1008200091E09F938F931F928FE08F938E010F5FC4
:100830001F4F1F930F930E94EF05F80101900020B6
:10084000E9F7BF0161507109601B710BC8010E947B
:100850004B020FB6F894DEBF0FBECDBF6E960FB63B
:10086000F894DEBF0FBECDBFDF91CF911F910F91E6
:10087000FF90EF90089511E0011778F261E080E4B5
:1008800091E00E944B021F5FF7CFCF93DF93C82FF9
:10089000D62F642F0E946A02DC1738F061E080E4F2
:1008A00091E00E944B02CF5FF7CFDF91CF91089587
:1008B00083B38695817091E08927089583B382FB85
:1008C000882780F991E08927089583B383FB8827DF
:1008D00080F991E08927089583B380958170089508
:1008E000999B06C09A9B04C09B9B02C09899F8CF25
:1008F0000895999B08C09A9B06C09B9B04C083B334
:1009000080958170089581E00895999907C09A991A
:1009100005C09B9903C083B38170089581E0089559
:100920000E947004999B06C09A9B06C09B9906C0C2
:1009300083E005C081E003C082E001C080E02FE7D2
:1009400039EA93E0215030409040E1F700C00000C8
:10095000089581E090E090935D0180935C0181E4D3
:1009600091E090935F0180935E0182E0809360014B
:10097000109261011092630110926201A99AAA9AE1
:10098000AB9AA89A0895E2E6F1E0118210823896B7
:1009900081E0EA3BF807C9F708958431910520F01A
:1009A0006AE070E00E94C70508958431910530F037
:1009B0006AE070E00E94C705862F089580E00895E0
:1009C0009AE0899F600D1124862F08959091B701B8
:1009D0008091B601992319F0891718F481E080936A
:1009E000B7010895CF93DF93C82FD62F61E080E041
:1009F0000E946A0240E16D2F8C2FDF91CF910C9401
:100A00005C031F93CF93DF938091B4019091B50164
:100A1000FC0123E0EE0FFF1F2A95E1F7E45AFE4F99
:100A20000680F781E02D309711F0099566C020917E
:100A3000B70130E0E9E6F1E0C1E0D0E01C2F4081F1
:100A400050E04817590709F06DC0DF0115974D9127
:100A50005C914217530709F065C060E080E00E9496
:100A60006A0293E0CC0FDD1F9A95E1F7C45ADE4F7E
:100A700060E18A819B810E944B02ED8188E0E89FC2
:100A8000F0011124E45AFE4F64818091B7010E9465
:100A9000F2040E949004813039F4212F30E0309329
:100AA000B5012093B40124C0833089F48091B7014B
:100AB0008F5F8093B701ED8198E0E99FF0011124E9
:100AC000E45AFE4F9481981798F581E011C0811186
:100AD00012C08091B70181508093B701811128C065
:100AE000ED8188E0E89FF0011124E45AFE4F8481F3
:100AF0008093B7011DC08230D9F4E091B401F09128
:100B0000B50183E0EE0FFF1F8A95E1F7E45AFE4F2F
:100B100080818093B701858190E09093B5018093A7
:100B2000B40106C038962196CB30D10509F086CFA6
:100B3000DF91CF911F9108950E94B50260E080E09F
:100B40000E946A0264E083E591E00E944B0261E04A
:100B500080E00E946A0240E168E287E00E945C0354
:100B60002FEF8DE399E4215080409040E1F700C0E1
:100B700000000E9423010E94A90481E08093B70134
:100B80001092B5011092B4010E940105FDCFAA1B7D
:100B9000BB1B51E107C0AA1FBB1FA617B70710F068
:100BA000A61BB70B881F991F5A95A9F7809590959A
:100BB000BC01CD01089597FB072E16F4009407D0D1
:100BC00077FD09D00E94C70507FC05D03EF490953B
:100BD00081959F4F0895709561957F4F0895AEE080
:100BE000B0E0E5EFF5E00C94A5080D891E898F892A
:100BF000988D26E02C831A83098397FF02C080E03A
:100C000090E801979E838D83AE01455E5F4F698DAD
:100C10007A8DCE0101960E941F064D815E8157FD9F
:100C20000AC02F813885421753070CF49A01F80146
:100C3000E20FF31F10822E96E4E00C94C108ACE0A2
:100C4000B0E0E5E2F6E00C9497087C016B018A01C4
:100C5000FC0117821682838181FFBDC1CE010196FE
:100C60004C01F7019381F60193FD859193FF8191EA
:100C70006F01882309F4ABC1853239F493FD859166
:100C800093FF81916F01853229F4B70190E00E94B2
:100C90000708E7CF512C312C20E02032A0F48B3212
:100CA00069F030F4803259F0833269F420612CC04D
:100CB0008D3239F0803339F4216026C022602460FF
:100CC00023C0286021C027FD27C030ED380F3A30FF
:100CD00078F426FF06C0FAE05F9E300D1124532EF3
:100CE00013C08AE0389E300D1124332E20620CC0D0
:100CF0008E3221F426FD6BC1206406C08C3611F4BF
:100D0000206802C0883641F4F60193FD859193FF77
:100D100081916F018111C1CF982F9F7D95549330A0
:100D200028F40C5F1F4FFFE3F9830DC0833631F0C9
:100D3000833771F0833509F05BC022C0F8018081F0
:100D400089830E5F1F4F44244394512C540115C0D6
:100D50003801F2E06F0E711CF801A080B18026FF0F
:100D600003C0652D70E002C06FEF7FEFC5012C87D7
:100D70000E94FC072C0183012C852F77222E17C09F
:100D80003801F2E06F0E711CF801A080B18026FFDF
:100D900003C0652D70E002C06FEF7FEFC5012C87A7
:100DA0000E94F1072C012C852068222E830123FC50
:100DB0001BC0832D90E048165906B0F4B70180E2BD
:100DC00090E00E9407083A94F4CFF50127FC859142
:100DD00027FE81915F01B70190E00E940708311062
:100DE0003A94F1E04F1A51084114510471F7E5C0EB
:100DF000843611F0893639F5F80127FF07C0608184
:100E00007181828193810C5F1F4F08C06081718165
:100E1000882777FD8095982F0E5F1F4F2F76B22E73
:100E200097FF09C090958095709561957F4F8F4F82
:100E30009F4F2068B22E2AE030E0A4010E943908BA
:100E4000A82EA81844C0853729F42F7EB22E2AE098
:100E500030E025C0F22FF97FBF2E8F36C1F018F495
:100E6000883579F0B4C0803719F0883721F0AFC0E9
:100E70002F2F2061B22EB4FE0DC08B2D8460B82EB2
:100E800009C024FF0AC09F2F9660B92E06C028E033
:100E900030E005C020E130E002C020E132E0F8019E
:100EA000B7FE07C060817181828193810C5F1F4F03
:100EB00006C06081718180E090E00E5F1F4FA40149
:100EC0000E943908A82EA818FB2DFF77BF2EB6FE6A
:100ED0000BC02B2D2E7FA51450F4B4FE0AC0B2FC1B
:100EE00008C02B2D2E7E05C07A2C2B2D03C07A2C0A
:100EF00001C0752C24FF0DC0FE01EA0DF11D80819B
:100F0000803311F4297E09C022FF06C073947394C4
:100F100004C0822F867809F0739423FD13C020FF4C
:100F200006C05A2C731418F4530C5718732C7314EE
:100F300068F4B70180E290E02C870E940708739460
:100F40002C85F5CF731410F4371801C0312C24FF11
:100F500012C0B70180E390E02C870E9407082C851F
:100F600022FF17C021FF03C088E590E002C088E798
:100F700090E0B7010CC0822F867859F021FD02C0A5
:100F800080E201C08BE227FD8DE2B70190E00E9474
:100F90000708A51438F4B70180E390E00E94070821
:100FA0005A94F7CFAA94F401EA0DF11D8081B7019C
:100FB00090E00E940708A110F5CF332009F451CE2C
:100FC000B70180E290E00E9407083A94F6CFF7015B
:100FD0008681978102C08FEF9FEF2C96E2E10C94FF
:100FE000B308FC010590615070400110D8F780955E
:100FF00090958E0F9F1F0895FC01615070400190E5
:101000000110D8F7809590958E0F9F1F08950F932C
:101010001F93CF93DF93182F092FEB018B8181FD55
:1010200003C08FEF9FEF20C082FF10C04E815F8111
:101030002C813D81421753077CF4E881F9819F019F
:101040002F5F3F4F39832883108306C0E885F985D9
:10105000812F0995892B29F72E813F812F5F3F4FE3
:101060003F832E83812F902FDF91CF911F910F917E
:101070000895FA01AA27283051F1203181F1E8942E
:101080006F936E7F6E5F7F4F8F4F9F4FAF4FB1E07B
:101090003ED0B4E03CD0670F781F891F9A1FA11D76
:1010A000680F791F8A1F911DA11D6A0F711D811D77
:1010B000911DA11D20D009F468943F912AE0269F3C
:1010C00011243019305D3193DEF6CF010895462F9B
:1010D0004770405D4193B3E00FD0C9F7F6CF462F7C
:1010E0004F70405D4A3318F0495D31FD40524193E5
:1010F00002D0A9F7EACFB4E0A695979587957795A2
:101100006795BA95C9F700976105710508959B0128
:10111000AC010A2E06945795479537952795BA95B1
:10112000C9F7620F731F841F951FA01D08952F928A
:101130003F924F925F926F927F928F929F92AF9267
:10114000BF92CF92DF92EF92FF920F931F93CF93B4
:10115000DF93CDB7DEB7CA1BDB0B0FB6F894DEBF4B
:101160000FBECDBF09942A88398848885F846E8471
:101170007D848C849B84AA84B984C884DF80EE80BB
:10118000FD800C811B81AA81B981CE0FD11D0FB6C4
:10119000F894DEBF0FBECDBFED010895F894FFCFE8
:1011A000534D414C4C2050495A5A4100484153201C
:1011B00053454C4543544544004249472050495A01
:1011C0005A4100424947204B4542414200534D415C
:1011D0004C4C204B4542414200434F43412D434F2D
:1011E0004C4100504550534900466F6F6420202009
:1011F0002020202020202020200050697A7A6120A1
:10120000202020202020202020200050697A7A6190
:1012100020536D616C6C20202020200050697A7A68
:10122000612042696720202020202020004B656239
:1012300061622020202020202020202020004B65DB
:1012400062616220536D616C6C2020202020004B75
:1012500065626162204269672020202020202000F2
:101260004472696E6B202020202020202020202026
:1012700000436F6C6120202020202020202020208F
:10128000200050657073692020202020202020201D
:0C12900020200048414841002564000077
:00000001FF
